:1009BE0060280043291E1F20212235C72B141A0838
:1009CE0015172F30E1041607090AC8C9E1C11D1B0E
:1009DE000619C6C2C3E3E2FF2CE0D7C060280001AF
:1009EE00293A3B3C3D3E35C72B44450815172F3061
:1009FE0039041607090AC8C981C1801B0619C6C267
:100A0E00C3E3E2FF2CE0D7C04100000241003600F4
:0D0A1E0041003700410038004200390A6AEB
:1003B000E4900036F09000007402F0E4900041F008
:1003C000900041E0FFC39408501474292FF582E493
:1003D0003400F583E4F0900041E004F080E2900006
:1003E0003BE07026A3E07022A3E0701EA3E0701A29
:1003F000A3E07016900041F0E4FF12000B90004162
:10040000E004F0E0C3940840EF22E4900041F09053
:100410000041E0FFC39405507C743B2FF582E43427
:1004200000F583E06066E4900042F0900042E0FF57
:10043000C394085057900041E0FE243BF582E43419
:1004400000F583E0FDA807088002C313D8FC30E064
:1004500033900042E0FF75F008EEA42FF582E435FA
:10046000F0F583E5822443F582E5833400F583E0EB
:10047000FFB4FF069000367401F0EFB4FE06900062
:10048000377401F0900042E004F0809F900041E05A
:1004900004F002040FE4900041F0900041E0FFC33B
:1004A00094054003020594743B2FF582E43400F573
:1004B00083E0700302058BE4900042F0900042E07C
:1004C000FFC39408400302058B900041E0FE243BEB
:1004D000F582E43400F583E0FDA807088002C31329
:1004E000D8FC20E003020582900036E0900042B480
:1004F000011BE0FF75F008EEA42FF582E435F0F55E
:1005000083E5822401F582E5833400801CE0FF90BE
:100510000041E075F008A42FF582E435F0F583E59D
:10052000822443F582E5833400F583E0900040F0B7
:10053000900040E0FFC394E04018EF540FFF7401B7
:10054000A807088002C333D8FCFF900029E02FF0F1
:100550008030900040E0FFC394C0400C900029E040
:100560002402F0EF245E8004900040E0FF90000041
:10057000E02429F582E43400F583EFF0900000E0F8
:1005800004F0900042E004F00204BC900041E0045A
:10059000F002049AE4900041F0900041E0FFC3941F
:1005A00008501774292FF582E43400F583E0FF1218
:0B05B000000B900041E004F080DF220F
:03001B000206B327
:1006B300C0E0C0F0C083C082C0D075D000C000C00D
:1006C30001C002C003C004C005C006C007900039C2
:1006D300E0FEA3E0FBE4C39BFFE49EFE74019400F1
:1006E300FDE49400FCE4FB7A01F9F8120BB48F8D5E
:1006F300900039E0FEA3E0FBE4C39BFFE49EFE749D
:10070300019400FDE49400FCE4FB7A01F9F8120B78
:10071300B4AF038F8B7580FF900038E06405702EB3
:10072300F078317C007D017B017A00793BFE7F0507
:1007330012038CEF605578317C007D017B017A00D8
:10074300793B7E007F051200EE1203B0803D9000DE
:1007530038E07002C280900038E0FFB40102C28129
:10076300EFB40202C282EFB40302C283EFB4040205
:10077300C284E590F4FF900038E0243BF582E43432
:1007830000F583EFF0900038E004F0D007D006D0F6
:1007930005D004D003D002D001D000D0D0D082D075
:0607A30083D0F0D0E0322B
:1007A90075C7AA75C75575AA07A2AF9200C2AF75DA
:1007B900C7AA75C75543AA80A20092AFA2AF9200FB
:1007C900C2AF75C7AA75C75543AA40A20092AF43E5
:1007D9009B10D2AFE4F5B1F5B1F5B3F5B4F5ACF5CD
:1007E900AD53B1FE43B20153B1FD43B20253B1FB64
:1007F90043B20453B1F743B20853B1EF43B21053B4
:10080900890F438910900039E0FEA3E0FBE4C39B04
:10081900FFE49EFE74019400FDE49400FCE4FB7A7D
:1008290001F9F8120BB48F8D900039E0FEA3E0FBBB
:10083900E4C39BFFE49EFE74019400FDE49400FC74
:10084900E4FB7A01F9F8120BB4AF038F8BD2ABD268
:10085900AFD28E7F007EC27D017C001205BBA2AFA4
:100869009200C2AF75C7AA75C75543AA40A20092A4
:03087900AF80EB62
:100BF800538EF7438901D28CEF4E6012758AF375D4
:100C08008CFF308DFDC28DEF1F70ED1E80EAC28C07
:010C180022B9
:100B1E008F0B8E0A8D098C08538EF7438901D28C68
:100B2E00E4FFFEFDFCAB0BAA0AA909A808C312013B
:100B3E00E26025758ACA758CFA308DFDC28DE50B83
:100B4E0024FFF50BE50A34FFF50AE50934FFF50934
:0B0B5E00E50834FFF50880C8C28C22B7
:100B69008F0F8E0E8D0D8C0C538EEF438910D28E04
:100B7900E4FFFEFDFCAB0FAA0EA90DA80CC31201E0
:100B8900E26025758BCA758DFA308FFDC28FE50F2E
:100B990024FFF50FE50E34FFF50EE50D34FFF50DD5
:0B0BA900E50C34FFF50C80C8C28E2262
:100A83008F138E128D118C1053C9BF53C9DF43C905
:100A930010D2CAE4FFFEFDFCAB13AA12A911A810E1
:100AA300C31201E2602575CC6075CDF030CFFDC275
:100AB300CFE51324FFF513E51234FFF512E51134E6
:0E0AC300FFF511E51034FFF51080C8C2CA22FD
:100AD1008F178E168D158C1475C40243C408E4FF5C
:100AE100FEFDFCAB17AA16A915A814C31201E260FA
:100AF1002875C56075C6F0E5C430E4FB53C4EFE565
:100B01001724FFF517E51634FFF516E51534FFF543
:0D0B110015E51434FFF51480C553C4F72218
:100A2C008F1B8E1A8D198C1853B1BF53B2BF53B193
:100A3C007F53B27F759852438920438780438E1031
:100A4C0053C4DFAB1BAA1AA919A8187F407E427D9C
:100A5C000F7C00120150EF04F404F58DAB1BAA1AA5
:100A6C00A919A8187F007E187D157C00120150EF83
:070A7C00F404F58DD28E2277
:1005BB008F248E238D228C2153B1BF53B2BF53B1E5
:1005CB007F53B27F75985243878053C4F843C4203E
:1005DB00AB24AA23A922A8217F407E427D0F7C0059
:1005EB00120150C374FF9FFF74FF9EFEE49DFDE458
:1005FB009CFC78081201F38FC6AB24AA23A922A86E
:10060B00217F407E427D0F7C00120150C374FF9FFF
:10061B00FF74FF9EE49DE49CE48FC5AB24AA23A941
:10062B0022A821FF7E187D15FC120150C3E49FFF09
:10063B00E49EFE74019DFDE49CFC78081201F38F8F
:10064B00C6AB24AA23A922A8217F007E187D157C86
:10065B0000120150C3E49FFFE49E74019DE49CE4EF
:10066B008FC5AB24AA23A922A8217F407E427D0FF0
:10067B00FC120150C374FF9FFF74FF9EFEE49DFDAF
:10068B00E49CFC78081201F38FC6AB24AA23A922A1
:10069B00A8217F407E427D0F7C00120150C374FF66
:0806AB009FFF8FC543C4082224
:070003003098FDAF99C2988F
:01000A0022D3
:08000B00C2998F993099FD2282
:10087C008F1F8E1E8D1D8C1C53B1FB53B2FB53B3BB
:10088C00BF53B4BF75F85253C4F8AB1FAA1EA91DB1
:10089C00A81C7F407E427D0F7C00120150C374FF68
:1008AC009FFF74FF9EFEE49DFDE49CFC7808120102
:1008BC00F38FC6AB1FAA1EA91DA81C7F407E427DCC
:1008CC000F7C00120150C374FF9FFF74FF9EE49DC8
:1008DC00E49CE48FC5AB1FAA1EA91DA81CFF7E18A3
:1008EC007D15FC120150C3E49FFFE49EFE74019D34
:1008FC00FDE49CFC78081201F38FC6AB1FAA1EA95D
:10090C001DA81C7F007E187D157C00120150C3E4CD
:08091C009FFF8FC543C40822B0
:0700130030F8FDAF9AC2F8BE
:01001A0022C3
:080C1900C2F98F9A30F9FD22A7
:03000000020924CE
:10092400787FE4F6D8FD9000007FFF7E03E4F0A317
:0A093400DFFCDEFA75812402097968
:10093E000207A9E493A3F8E493A34003F68001F21F
:10094E0008DFF48029E493A3F85407240CC8C333BA
:10095E00C4540F4420C8834004F456800146F6DF89
:10096E00E4800B01020408102040809009BEE47E52
:10097E00019360BCA3FF543F30E509541FFEE4937E
:10098E00A360010ECF54C025E060A840B8E493A345
:10099E00FAE493A3F8E493A3C8C582C8CAC583CA70
:1009AE00F0A3C8C582C8CAC583CADFE9DEE780BE28
:010A2B0000CA
:10001E00E709F608DFFA8046E709F208DFFA803EC4
:10002E0088828C83E709F0A3DFFA8032E309F608B1
:10003E00DFFA8078E309F208DFFA807088828C8319
:10004E00E309F0A3DFFA806489828A83E0A3F608CD
:10005E00DFFA805889828A83E0A3F208DFFA804CA7
:10006E0080D280FA80C680D4806980F2803380107E
:10007E0080A680EA809A80A880DA80E280CA8033E7
:10008E0089828A83ECFAE493A3C8C582C8CCC5835F
:10009E00CCF0A3C8C582C8CCC583CCDFE9DEE7802F
:1000AE000D89828A83E493A3F608DFF9ECFAA9F0AE
:1000BE00EDFB2289828A83ECFAE0A3C8C582C8CC04
:1000CE00C583CCF0A3C8C582C8CCC583CCDFEADE1D
:1000DE00E880DB89828A83E493A3F208DFF980CC7F
:1000EE0088F0EF60010E4E60C388F0ED2402B40478
:1000FE000050B9F582EB2402B4040050AF2323451F
:06010E00822390006E73D5
:1001140075F008758200EF2FFFEE33FECD33CDCCA2
:1001240033CCC58233C5829BED9AEC99E582984025
:100134000CF582EE9BFEED9AFDEC99FC0FD5F0D602
:10014400E4CEFBE4CDFAE4CCF9A88222B800C1B92C
:100154000059BA002DEC8BF084CFCECDFCE5F0CB6A
:10016400F97818EF2FFFEE33FEED33FDEC33FCEBA3
:1001740033FB10D703994004EB99FB0FD8E5E4F95E
:10018400FA227818EF2FFFEE33FEED33FDEC33FC4B
:10019400C933C910D7059BE99A4007EC9BFCE99A3F
:1001A400F90FD8E0E4C9FAE4CCFB2275F010EF2F84
:1001B400FFEE33FEED33FDCC33CCC833C810D70784
:1001C4009BEC9AE899400AED9BFDEC9AFCE899F8BF
:0E01D4000FD5F0DAE4CDFBE4CCFAE4C8F92252
:100BB400C2D5E830E70FB2D5E4C39BFBE49AFAE46C
:100BC40099F9E498F8EC30E717B2D5120BEA120160
:100BD40050E4C39BFBE49AFAE499F9E498F880039F
:100BE40012015030D50DE4C39FFFE49EFEE49DFD49
:040BF400E49CFC225F
:1001E200EB9FF5F0EA9E42F0E99D42F0E89C45F073
:0101F20022EA
:1001F300E8600FECC313FCED13FDEE13FEEF13FFEA
:03020300D8F1220D
:10020600E3F5F009E208B5F06BDFF58067E3F5F09A
:1002160009E608B5F05EDFF5805A87F009E608B50D
:10022600F052DFF6804E87F009E208B5F046DFF6B9
:10023600804288828C8387F009E0A3B5F036DFF62A
:10024600803288828C8387F009E493A3B5F025DF9A
:10025600F5802188828C83E3F5F009E0A3B5F014DC
:10026600DFF5801088828C83E3F5F009E493A3B56B
:10027600F002DFF4020335808780E9809080D48025
:100286003E8015806E807E809D80B7808D80A380A5
:10029600518074803C02034189828A83ECFAE4939C
:1002A600F5F0A3C8C582C8CCC583CCE493A3C8C562
:1002B60082C8CCC583CCB5F076DFE3DEE1807089F9
:1002C600828A83E493F5F0A3E208B5F062DFF48056
:1002D6005E89828A83E0F5F0A3E608B5F051DFF582
:1002E600804D89828A83E0F5F0A3E208B5F040DF0D
:1002F600F5803C89828A83E493F5F0A3E608B5F09D
:100306002EDFF4802A8002805789828A83ECFAE401
:1003160093F5F0A3C8C582C8CCC583CCE0A3C8C5F5
:1003260082C8CCC583CCB5F006DFE4DEE280007F70
:10033600FFB5F0020F2240027F012289828A83ECF8
:10034600FAE0F5F0A3C8C582C8CCC583CCE0A3C843
:10035600C582C8CCC583CCB5F0D5DFE5DEE380CF5A
:1003660089828A83ECFAE0F5F0A3C8C582C8CCC5B9
:1003760083CCE493A3C8C582C8CCC583CCB5F0AF03
:10038600DFE4DEE280A988F0EF60010E4E60ABED9F
:100396002402B404005098F582EB2402B404005001
:0A03A6008E232345822390027D730D
:00000001FF
