BL51 BANKED LINKER/LOCATER V6.22                                                        09/05/2020  22:25:15  PAGE 1


BL51 BANKED LINKER/LOCATER V6.22, INVOKED BY:
C:\KEIL_V5\C51\BIN\BL51.EXE .\Output\GPIO.obj, .\Output\Delay.obj, .\Output\Common.obj, .\Output\STARTUP.obj TO .\Output
>> \GPIO PRINT (.\LST\GPIO.m51) RAMSIZE (256) DISABLEWARNING (16)


MEMORY MODEL: SMALL


INPUT MODULES INCLUDED:
  .\Output\GPIO.obj (GPIO)
  .\Output\Delay.obj (DELAY)
  .\Output\Common.obj (COMMON)
  .\Output\STARTUP.obj (?C_STARTUP)
  C:\KEIL_V5\C51\LIB\C51S.LIB (?C_INIT)
  C:\KEIL_V5\C51\LIB\C51S.LIB (?C?COPY)
  C:\KEIL_V5\C51\LIB\C51S.LIB (?C?ULDIV)
  C:\KEIL_V5\C51\LIB\C51S.LIB (?C?SLDIV)
  C:\KEIL_V5\C51\LIB\C51S.LIB (?C?ULCMP)
  C:\KEIL_V5\C51\LIB\C51S.LIB (?C?ULSHR)
  C:\KEIL_V5\C51\LIB\C51S.LIB (?C?MEMCMP)


LINK MAP OF MODULE:  .\Output\GPIO (GPIO)


            TYPE    BASE      LENGTH    RELOCATION   SEGMENT NAME
            -----------------------------------------------------

            * * * * * * *   D A T A   M E M O R Y   * * * * * * *
            REG     0000H     0008H     ABSOLUTE     "REG BANK 0"
            DATA    0008H     0004H     UNIT         ?DT?_TIMER0_DELAY1MS?DELAY
            DATA    000CH     0004H     UNIT         ?DT?_TIMER1_DELAY1MS?DELAY
            DATA    0010H     0004H     UNIT         ?DT?_TIMER2_DELAY1MS?DELAY
            DATA    0014H     0004H     UNIT         ?DT?_TIMER3_DELAY1MS?DELAY
            DATA    0018H     0004H     UNIT         ?DT?_INITIALUART0_TIMER1?COMMON
            DATA    001CH     0004H     UNIT         ?DT?_INITIALUART1_TIMER3?COMMON
            BIT     0020H.0   0000H.1   UNIT         ?BI?DELAY
                    0020H.1   0000H.7                *** GAP ***
            DATA    0021H     0004H     UNIT         _DATA_GROUP_
            IDATA   0025H     0001H     UNIT         ?STACK

            * * * * * * *  X D A T A   M E M O R Y  * * * * * * *
            XDATA   0000H     006BH     UNIT         ?XD?GPIO

            * * * * * * *   C O D E   M E M O R Y   * * * * * * *
            CODE    0000H     0003H     ABSOLUTE     
            CODE    0003H     0008H     UNIT         ?PR?RECEIVE_DATA_FROM_UART0?COMMON
            CODE    000BH     0008H     UNIT         ?PR?_SEND_DATA_TO_UART0?COMMON
            CODE    0013H     0008H     UNIT         ?PR?RECEIVE_DATA_FROM_UART1?COMMON
            CODE    001BH     0003H     ABSOLUTE     
            CODE    001EH     0392H     UNIT         ?C?LIB_CODE
            CODE    03B0H     020BH     UNIT         ?PR?MAKEHIDFRAMES?GPIO
            CODE    05BBH     00F8H     UNIT         ?PR?_INITIALUART0_TIMER3?COMMON
            CODE    06B3H     00F6H     UNIT         ?PR?TIMER1_ISR?GPIO
            CODE    07A9H     00D3H     UNIT         ?PR?MAIN?GPIO
            CODE    087CH     00A8H     UNIT         ?PR?_INITIALUART1_TIMER3?COMMON
            CODE    0924H     009AH     UNIT         ?C_C51STARTUP
            CODE    09BEH     006EH     UNIT         ?C_INITSEG
BL51 BANKED LINKER/LOCATER V6.22                                                      09/05/2020  22:25:15  PAGE 2


            CODE    0A2CH     0057H     UNIT         ?PR?_INITIALUART0_TIMER1?COMMON
            CODE    0A83H     004EH     UNIT         ?PR?_TIMER2_DELAY1MS?DELAY
            CODE    0AD1H     004DH     UNIT         ?PR?_TIMER3_DELAY1MS?DELAY
            CODE    0B1EH     004BH     UNIT         ?PR?_TIMER0_DELAY1MS?DELAY
            CODE    0B69H     004BH     UNIT         ?PR?_TIMER1_DELAY1MS?DELAY
            CODE    0BB4H     0044H     UNIT         ?C?LDIV
            CODE    0BF8H     0021H     UNIT         ?PR?_DELAY10US?DELAY
            CODE    0C19H     0008H     UNIT         ?PR?_SEND_DATA_TO_UART1?COMMON



OVERLAY MAP OF MODULE:   .\Output\GPIO (GPIO)


SEGMENT                                      DATA_GROUP 
  +--> CALLED SEGMENT                      START    LENGTH
----------------------------------------------------------
?PR?TIMER1_ISR?GPIO                        -----    -----
  +--> ?PR?MAKEHIDFRAMES?GPIO

?PR?MAKEHIDFRAMES?GPIO                     -----    -----
  +--> ?PR?_SEND_DATA_TO_UART0?COMMON

*** NEW ROOT ***************************************************

?C_C51STARTUP                              -----    -----
  +--> ?PR?MAIN?GPIO
  +--> ?C_INITSEG

?PR?MAIN?GPIO                              -----    -----
  +--> ?PR?_INITIALUART0_TIMER3?COMMON

?PR?_INITIALUART0_TIMER3?COMMON            0021H    0004H



SYMBOL TABLE OF MODULE:  .\Output\GPIO (GPIO)

  VALUE           TYPE          NAME
  ----------------------------------

  -------         MODULE        GPIO
  C:0000H         SYMBOL        _ICE_DUMMY_
  D:00B1H         PUBLIC        P0M1
  D:00B3H         PUBLIC        P1M1
  D:00B2H         PUBLIC        P0M2
  D:0080H         PUBLIC        P0
  D:00B4H         PUBLIC        P1M2
  D:0090H         PUBLIC        P1
  D:00ACH         PUBLIC        P3M1
  D:00A0H         PUBLIC        P2
  D:00B0H         PUBLIC        P3
  D:00ADH         PUBLIC        P3M2
  C:06B3H         PUBLIC        Timer1_ISR
  B:00A8H.7       PUBLIC        EA
  D:00D8H         PUBLIC        PWMCON0
  D:00A8H         PUBLIC        IE
BL51 BANKED LINKER/LOCATER V6.22                                                      09/05/2020  22:25:15  PAGE 3


  D:00C7H         PUBLIC        TA
  D:00B8H         PUBLIC        IP
  X:0000H         PUBLIC        HIDFramesPointer
  C:07A9H         PUBLIC        main
  X:0001H         PUBLIC        Fn0_keyMap
  B:0080H.0       PUBLIC        P00
  B:0080H.1       PUBLIC        P01
  B:0080H.2       PUBLIC        P02
  B:0080H.3       PUBLIC        P03
  B:0080H.4       PUBLIC        P04
  D:0098H         PUBLIC        SCON
  D:0089H         PUBLIC        TMOD
  D:0088H         PUBLIC        TCON
  X:0029H         PUBLIC        HIDFrames
  X:0031H         PUBLIC        beforeAllKey
  D:00F8H         PUBLIC        SCON_1
  B:00A8H.3       PUBLIC        ET1
  X:0036H         PUBLIC        Fn0_Status
  D:008DH         PUBLIC        TH1
  X:0037H         PUBLIC        Fn1_Status
  D:008BH         PUBLIC        TL1
  X:0038H         PUBLIC        tttt
  D:009BH         PUBLIC        EIE
  B:0088H.6       PUBLIC        TR1
  C:03B0H         PUBLIC        makeHIDFrames
  D:00E8H         PUBLIC        ADCCON0
  D:00C0H         PUBLIC        I2CON
  X:0039H         PUBLIC        TH1_INIT
  X:003BH         PUBLIC        allKey
  D:00C8H         PUBLIC        T2CON
  X:0040H         PUBLIC        kCode
  X:0041H         PUBLIC        i
  X:0042H         PUBLIC        j
  X:0043H         PUBLIC        keyMap
  D:00D0H         PUBLIC        PSW
  D:00AAH         PUBLIC        WDCON
  -------         PROC          MAKEHIDFRAMES
  C:03B0H         LINE#         38
  C:03B0H         LINE#         39
  C:03B0H         LINE#         40
  C:03B5H         LINE#         41
  C:03BBH         LINE#         42
  C:03CAH         LINE#         43
  C:03CAH         LINE#         44
  C:03D6H         LINE#         45
  C:03DEH         LINE#         46
  C:03F4H         LINE#         47
  C:03F4H         LINE#         48
  C:03F8H         LINE#         49
  C:03F8H         LINE#         50
  C:03FDH         LINE#         51
  C:040AH         LINE#         52
  C:040AH         LINE#         54
  C:040AH         LINE#         55
  C:0419H         LINE#         56
  C:0419H         LINE#         57
  C:0426H         LINE#         58
BL51 BANKED LINKER/LOCATER V6.22                                                      09/05/2020  22:25:15  PAGE 4


  C:0426H         LINE#         59
  C:0435H         LINE#         60
  C:0435H         LINE#         61
  C:0451H         LINE#         62
  C:0451H         LINE#         63
  C:0474H         LINE#         64
  C:0474H         LINE#         65
  C:047AH         LINE#         66
  C:047AH         LINE#         67
  C:047EH         LINE#         68
  C:047EH         LINE#         69
  C:0484H         LINE#         70
  C:0484H         LINE#         71
  C:0484H         LINE#         72
  C:048CH         LINE#         73
  C:048CH         LINE#         74
  C:0495H         LINE#         76
  C:04A7H         LINE#         77
  C:04A7H         LINE#         78
  C:04B7H         LINE#         79
  C:04B7H         LINE#         80
  C:04C9H         LINE#         81
  C:04C9H         LINE#         82
  C:04E8H         LINE#         83
  C:04E8H         LINE#         84
  C:04F2H         LINE#         85
  C:04F2H         LINE#         86
  C:050BH         LINE#         87
  C:050DH         LINE#         89
  C:050DH         LINE#         90
  C:0530H         LINE#         91
  C:0530H         LINE#         93
  C:053AH         LINE#         94
  C:053AH         LINE#         95
  C:0550H         LINE#         96
  C:0552H         LINE#         97
  C:055CH         LINE#         98
  C:055CH         LINE#         99
  C:0563H         LINE#         100
  C:0566H         LINE#         101
  C:0566H         LINE#         102
  C:0568H         LINE#         104
  C:0568H         LINE#         105
  C:057CH         LINE#         106
  C:0582H         LINE#         107
  C:0582H         LINE#         108
  C:0582H         LINE#         109
  C:058BH         LINE#         110
  C:058BH         LINE#         111
  C:0594H         LINE#         112
  C:05A3H         LINE#         113
  C:05A3H         LINE#         114
  C:05B2H         LINE#         115
  C:05BAH         LINE#         116
  C:05BAH         LINE#         117
  -------         ENDPROC       MAKEHIDFRAMES
  -------         PROC          TIMER1_ISR
BL51 BANKED LINKER/LOCATER V6.22                                                      09/05/2020  22:25:15  PAGE 5


  C:06B3H         LINE#         121
  C:06D0H         LINE#         123
  C:06F3H         LINE#         124
  C:0718H         LINE#         127
  C:071BH         LINE#         128
  C:0723H         LINE#         129
  C:0723H         LINE#         130
  C:0724H         LINE#         131
  C:0739H         LINE#         132
  C:0739H         LINE#         133
  C:074CH         LINE#         135
  C:074FH         LINE#         137
  C:074FH         LINE#         138
  C:0751H         LINE#         140
  C:0751H         LINE#         141
  C:0757H         LINE#         142
  C:0759H         LINE#         143
  C:0761H         LINE#         144
  C:0763H         LINE#         145
  C:0767H         LINE#         146
  C:0769H         LINE#         147
  C:076DH         LINE#         148
  C:076FH         LINE#         149
  C:0773H         LINE#         150
  C:0775H         LINE#         152
  C:0788H         LINE#         154
  C:078EH         LINE#         155
  C:078EH         LINE#         156
  -------         ENDPROC       TIMER1_ISR
  -------         PROC          MAIN
  C:07A9H         LINE#         158
  C:07A9H         LINE#         159
  C:07A9H         LINE#         161
  C:07ACH         LINE#         162
  C:07AFH         LINE#         163
  C:07B2H         LINE#         164
  C:07C5H         LINE#         165
  C:07D8H         LINE#         166
  C:07DBH         LINE#         167
  C:07DDH         LINE#         171
  C:07EAH         LINE#         173
  C:07F0H         LINE#         174
  C:07F6H         LINE#         175
  C:07FCH         LINE#         176
  C:0802H         LINE#         177
  C:0808H         LINE#         179
  C:080EH         LINE#         181
  C:0831H         LINE#         182
  C:0856H         LINE#         183
  C:0858H         LINE#         184
  C:085AH         LINE#         185
  C:085CH         LINE#         187
  C:0867H         LINE#         191
  C:0867H         LINE#         192
  C:0867H         LINE#         193
  C:087AH         LINE#         194
  -------         ENDPROC       MAIN
BL51 BANKED LINKER/LOCATER V6.22                                                      09/05/2020  22:25:15  PAGE 6


  -------         ENDMOD        GPIO

  -------         MODULE        DELAY
  C:0000H         SYMBOL        _ICE_DUMMY_
  D:0080H         PUBLIC        P0
  D:0090H         PUBLIC        P1
  D:00A0H         PUBLIC        P2
  D:00B0H         PUBLIC        P3
  D:00D8H         PUBLIC        PWMCON0
  D:00A8H         PUBLIC        IE
  D:00B8H         PUBLIC        IP
  C:0B1EH         PUBLIC        _Timer0_Delay1ms
  C:0B69H         PUBLIC        _Timer1_Delay1ms
  C:0A83H         PUBLIC        _Timer2_Delay1ms
  C:0AD1H         PUBLIC        _Timer3_Delay1ms
  B:0020H.0       PUBLIC        BIT_TMP
  D:0098H         PUBLIC        SCON
  D:0089H         PUBLIC        TMOD
  D:0088H         PUBLIC        TCON
  C:0BF8H         PUBLIC        _Delay10us
  D:00F8H         PUBLIC        SCON_1
  B:0088H.5       PUBLIC        TF0
  B:0088H.7       PUBLIC        TF1
  B:00C8H.7       PUBLIC        TF2
  D:008CH         PUBLIC        TH0
  D:00C6H         PUBLIC        RH3
  D:008DH         PUBLIC        TH1
  D:00CDH         PUBLIC        TH2
  D:008AH         PUBLIC        TL0
  D:00C5H         PUBLIC        RL3
  D:008BH         PUBLIC        TL1
  D:00CCH         PUBLIC        TL2
  B:0088H.4       PUBLIC        TR0
  B:0088H.6       PUBLIC        TR1
  B:00C8H.2       PUBLIC        TR2
  D:00E8H         PUBLIC        ADCCON0
  D:00C0H         PUBLIC        I2CON
  D:00C9H         PUBLIC        T2MOD
  D:00C8H         PUBLIC        T2CON
  D:00C4H         PUBLIC        T3CON
  D:008EH         PUBLIC        CKCON
  D:00D0H         PUBLIC        PSW
  -------         PROC          _DELAY10US
  D:0006H         SYMBOL        u16CNT
  C:0BF8H         LINE#         22
  C:0BF8H         LINE#         23
  C:0BF8H         LINE#         24
  C:0BFBH         LINE#         25
  C:0BFEH         LINE#         26
  C:0C00H         LINE#         27
  C:0C04H         LINE#         28
  C:0C04H         LINE#         29
  C:0C07H         LINE#         30
  C:0C0AH         LINE#         31
  C:0C0DH         LINE#         32
  C:0C0FH         LINE#         33
  C:0C14H         LINE#         34
BL51 BANKED LINKER/LOCATER V6.22                                                      09/05/2020  22:25:15  PAGE 7


  C:0C16H         LINE#         35
  C:0C18H         LINE#         36
  -------         ENDPROC       _DELAY10US
  -------         PROC          _TIMER0_DELAY1MS
  D:0008H         SYMBOL        u32CNT
  C:0B1EH         LINE#         38
  C:0B26H         LINE#         39
  C:0B26H         LINE#         40
  C:0B29H         LINE#         41
  C:0B2CH         LINE#         42
  C:0B2EH         LINE#         43
  C:0B41H         LINE#         44
  C:0B41H         LINE#         45
  C:0B44H         LINE#         46
  C:0B47H         LINE#         47
  C:0B4AH         LINE#         48
  C:0B4CH         LINE#         49
  C:0B64H         LINE#         50
  C:0B66H         LINE#         51
  C:0B68H         LINE#         52
  -------         ENDPROC       _TIMER0_DELAY1MS
  -------         PROC          _TIMER1_DELAY1MS
  D:000CH         SYMBOL        u32CNT
  C:0B69H         LINE#         54
  C:0B71H         LINE#         55
  C:0B71H         LINE#         56
  C:0B74H         LINE#         57
  C:0B77H         LINE#         58
  C:0B79H         LINE#         59
  C:0B8CH         LINE#         60
  C:0B8CH         LINE#         61
  C:0B8FH         LINE#         62
  C:0B92H         LINE#         63
  C:0B95H         LINE#         64
  C:0B97H         LINE#         65
  C:0BAFH         LINE#         66
  C:0BB1H         LINE#         67
  C:0BB3H         LINE#         68
  -------         ENDPROC       _TIMER1_DELAY1MS
  -------         PROC          _TIMER2_DELAY1MS
  D:0010H         SYMBOL        u32CNT
  C:0A83H         LINE#         70
  C:0A8BH         LINE#         71
  C:0A8BH         LINE#         73
  C:0A8EH         LINE#         74
  C:0A91H         LINE#         75
  C:0A94H         LINE#         76
  C:0A96H         LINE#         77
  C:0AA9H         LINE#         78
  C:0AA9H         LINE#         79
  C:0AACH         LINE#         80
  C:0AAFH         LINE#         81
  C:0AB2H         LINE#         82
  C:0AB4H         LINE#         83
  C:0ACCH         LINE#         84
  C:0ACEH         LINE#         85
  C:0AD0H         LINE#         86
BL51 BANKED LINKER/LOCATER V6.22                                                      09/05/2020  22:25:15  PAGE 8


  -------         ENDPROC       _TIMER2_DELAY1MS
  -------         PROC          _TIMER3_DELAY1MS
  D:0014H         SYMBOL        u32CNT
  C:0AD1H         LINE#         88
  C:0AD9H         LINE#         89
  C:0AD9H         LINE#         90
  C:0ADCH         LINE#         91
  C:0ADFH         LINE#         92
  C:0AF2H         LINE#         93
  C:0AF2H         LINE#         94
  C:0AF5H         LINE#         95
  C:0AF8H         LINE#         96
  C:0AFDH         LINE#         97
  C:0B00H         LINE#         98
  C:0B18H         LINE#         99
  C:0B1AH         LINE#         100
  C:0B1DH         LINE#         101
  -------         ENDPROC       _TIMER3_DELAY1MS
  -------         ENDMOD        DELAY

  -------         MODULE        COMMON
  C:0000H         SYMBOL        _ICE_DUMMY_
  D:00B1H         PUBLIC        P0M1
  D:00B3H         PUBLIC        P1M1
  D:00B2H         PUBLIC        P0M2
  D:0080H         PUBLIC        P0
  D:00B4H         PUBLIC        P1M2
  D:0090H         PUBLIC        P1
  D:00A0H         PUBLIC        P2
  D:00B0H         PUBLIC        P3
  D:00D8H         PUBLIC        PWMCON0
  D:00A8H         PUBLIC        IE
  D:00B8H         PUBLIC        IP
  B:0098H.0       PUBLIC        RI
  B:0098H.1       PUBLIC        TI
  B:00F8H.0       PUBLIC        RI_1
  B:00F8H.1       PUBLIC        TI_1
  D:0099H         PUBLIC        SBUF
  D:0087H         PUBLIC        PCON
  D:0098H         PUBLIC        SCON
  D:0089H         PUBLIC        TMOD
  D:0088H         PUBLIC        TCON
  D:009AH         PUBLIC        SBUF_1
  D:00F8H         PUBLIC        SCON_1
  D:00C6H         PUBLIC        RH3
  D:008DH         PUBLIC        TH1
  D:00C5H         PUBLIC        RL3
  C:0A2CH         PUBLIC        _InitialUART0_Timer1
  C:05BBH         PUBLIC        _InitialUART0_Timer3
  C:087CH         PUBLIC        _InitialUART1_Timer3
  B:0088H.6       PUBLIC        TR1
  D:00E8H         PUBLIC        ADCCON0
  C:000BH         PUBLIC        _Send_Data_To_UART0
  C:0C19H         PUBLIC        _Send_Data_To_UART1
  D:00C0H         PUBLIC        I2CON
  D:00C8H         PUBLIC        T2CON
  D:00C4H         PUBLIC        T3CON
BL51 BANKED LINKER/LOCATER V6.22                                                      09/05/2020  22:25:15  PAGE 9


  C:0003H         PUBLIC        Receive_Data_From_UART0
  C:0013H         PUBLIC        Receive_Data_From_UART1
  D:008EH         PUBLIC        CKCON
  D:00D0H         PUBLIC        PSW
  -------         PROC          _INITIALUART0_TIMER1
  D:0018H         SYMBOL        u32Baudrate
  C:0A2CH         LINE#         27
  C:0A34H         LINE#         28
  C:0A34H         LINE#         29
  C:0A3AH         LINE#         30
  C:0A40H         LINE#         32
  C:0A43H         LINE#         33
  C:0A46H         LINE#         35
  C:0A49H         LINE#         36
  C:0A4CH         LINE#         37
  C:0A4FH         LINE#         41
  C:0A68H         LINE#         44
  C:0A80H         LINE#         46
  C:0A82H         LINE#         47
  -------         ENDPROC       _INITIALUART0_TIMER1
  -------         PROC          _INITIALUART0_TIMER3
  D:0021H         SYMBOL        u32Baudrate
  C:05BBH         LINE#         49
  C:05C3H         LINE#         50
  C:05C3H         LINE#         51
  C:05C9H         LINE#         52
  C:05CFH         LINE#         54
  C:05D2H         LINE#         55
  C:05D5H         LINE#         56
  C:05D8H         LINE#         57
  C:05DBH         LINE#         60
  C:0604H         LINE#         61
  C:0626H         LINE#         64
  C:064CH         LINE#         65
  C:066DH         LINE#         67
  C:0695H         LINE#         68
  C:06AFH         LINE#         69
  C:06B2H         LINE#         70
  -------         ENDPROC       _INITIALUART0_TIMER3
  -------         PROC          RECEIVE_DATA_FROM_UART0
  -------         DO            
  D:0007H         SYMBOL        c
  -------         ENDDO         
  C:0003H         LINE#         72
  C:0003H         LINE#         73
  C:0003H         LINE#         76
  C:0006H         LINE#         77
  C:0008H         LINE#         78
  C:000AH         LINE#         79
  C:000AH         LINE#         80
  -------         ENDPROC       RECEIVE_DATA_FROM_UART0
  -------         PROC          _SEND_DATA_TO_UART0
  D:0007H         SYMBOL        c
  C:000BH         LINE#         82
  C:000BH         LINE#         83
  C:000BH         LINE#         84
  C:000DH         LINE#         85
BL51 BANKED LINKER/LOCATER V6.22                                                      09/05/2020  22:25:15  PAGE 10


  C:000FH         LINE#         86
  C:0012H         LINE#         87
  -------         ENDPROC       _SEND_DATA_TO_UART0
  -------         PROC          _INITIALUART1_TIMER3
  D:001CH         SYMBOL        u32Baudrate
  C:087CH         LINE#         91
  C:0884H         LINE#         92
  C:0884H         LINE#         93
  C:088AH         LINE#         94
  C:0890H         LINE#         96
  C:0893H         LINE#         97
  C:0896H         LINE#         107
  C:08BFH         LINE#         108
  C:08E1H         LINE#         115
  C:0907H         LINE#         116
  C:0920H         LINE#         118
  C:0923H         LINE#         119
  -------         ENDPROC       _INITIALUART1_TIMER3
  -------         PROC          RECEIVE_DATA_FROM_UART1
  -------         DO            
  D:0007H         SYMBOL        c
  -------         ENDDO         
  C:0013H         LINE#         121
  C:0013H         LINE#         122
  C:0013H         LINE#         125
  C:0016H         LINE#         126
  C:0018H         LINE#         127
  C:001AH         LINE#         128
  C:001AH         LINE#         129
  -------         ENDPROC       RECEIVE_DATA_FROM_UART1
  -------         PROC          _SEND_DATA_TO_UART1
  D:0007H         SYMBOL        c
  C:0C19H         LINE#         131
  C:0C19H         LINE#         132
  C:0C19H         LINE#         133
  C:0C1BH         LINE#         134
  C:0C1DH         LINE#         135
  C:0C20H         LINE#         136
  -------         ENDPROC       _SEND_DATA_TO_UART1
  -------         ENDMOD        COMMON

  -------         MODULE        ?C_STARTUP
  C:0924H         SEGMENT       ?C_C51STARTUP
  I:0025H         SEGMENT       ?STACK
  C:0000H         PUBLIC        ?C_STARTUP
  D:00E0H         SYMBOL        ACC
  D:00F0H         SYMBOL        B
  D:0083H         SYMBOL        DPH
  D:0082H         SYMBOL        DPL
  N:0000H         SYMBOL        IBPSTACK
  N:0100H         SYMBOL        IBPSTACKTOP
  N:0080H         SYMBOL        IDATALEN
  C:0927H         SYMBOL        IDATALOOP
  N:0000H         SYMBOL        PBPSTACK
  N:0000H         SYMBOL        PBPSTACKTOP
  N:0000H         SYMBOL        PDATALEN
  N:0000H         SYMBOL        PDATASTART
BL51 BANKED LINKER/LOCATER V6.22                                                      09/05/2020  22:25:15  PAGE 11


  N:0000H         SYMBOL        PPAGE
  N:0000H         SYMBOL        PPAGEENABLE
  D:00A0H         SYMBOL        PPAGE_SFR
  D:0081H         SYMBOL        SP
  C:0924H         SYMBOL        STARTUP1
  N:0000H         SYMBOL        XBPSTACK
  N:0000H         SYMBOL        XBPSTACKTOP
  N:02FFH         SYMBOL        XDATALEN
  C:0932H         SYMBOL        XDATALOOP
  N:0000H         SYMBOL        XDATASTART
  C:0000H         LINE#         92
  C:0924H         LINE#         99
  C:0926H         LINE#         100
  C:0927H         LINE#         101
  C:0928H         LINE#         102
  C:092AH         LINE#         106
  C:092DH         LINE#         107
  C:092FH         LINE#         109
  C:0931H         LINE#         113
  C:0932H         LINE#         114
  C:0933H         LINE#         115
  C:0934H         LINE#         116
  C:0936H         LINE#         117
  C:0938H         LINE#         151
  C:093BH         LINE#         155
  -------         ENDMOD        ?C_STARTUP

  -------         MODULE        ?C?COPY
  C:00EEH         PUBLIC        ?C?COPY
  -------         ENDMOD        ?C?COPY

  -------         MODULE        ?C?ULDIV
  C:0150H         PUBLIC        ?C?ULDIV
  -------         ENDMOD        ?C?ULDIV

  -------         MODULE        ?C?SLDIV
  C:0BB4H         PUBLIC        ?C?SLDIV
  -------         ENDMOD        ?C?SLDIV

  -------         MODULE        ?C?ULCMP
  C:01E2H         PUBLIC        ?C?ULCMP
  -------         ENDMOD        ?C?ULCMP

  -------         MODULE        ?C?ULSHR
  C:01F3H         PUBLIC        ?C?ULSHR
  -------         ENDMOD        ?C?ULSHR

  -------         MODULE        ?C?MEMCMP
  C:038CH         PUBLIC        ?C?MEMCMP
  -------         ENDMOD        ?C?MEMCMP

Program Size: data=37.1 xdata=107 code=3105
LINK/LOCATE RUN COMPLETE.  0 WARNING(S),  0 ERROR(S)
